:020000040800F2
:10000000800600209D010008790E0008090E0008F6
:1000100000000000000000000000000000000000E0
:100020000000000000000000000000007D0E00083D
:1000300000000000000000007B0E00087F0E00089A
:10004000AF010008AF010008AF010008AF010008D0
:10005000AF010008AF010008AF010008AF010008C0
:10006000AF010008AF010008AF010008AF010008B0
:10007000AF010008AF010008AF010008AF010008A0
:10008000AF010008AF010008AF010008AF01000890
:10009000AF010008AF010008AF010008AF01000880
:1000A000AF010008AF010008AF010008AF01000870
:1000B000AF010008AF010008AF010008AF01000860
:1000C00000F002F800F03EF80CA030C80838241800
:1000D0002D18A246671EAB4654465D46AC4201D180
:1000E00000F030F87E460F3E0FCCB6460126334274
:1000F00000D0FB1AA246AB46334318474810000015
:1001000068100000103A02D378C878C1FAD85207B4
:1001100001D330C830C101D504680C6070470000BD
:100120000023002400250026103A01D378C1FBD813
:10013000520700D330C100D50B6070471FB51FBDFB
:1001400010B510BD00F097F91146FFF7F7FF00F06A
:100150004BFF00F0AFF903B4FFF7F2FF03BC00F070
:10016000B5F9000070B505460C46164602E00FCC06
:100170000FC5103E102EFAD2082E02D303CC03C5B1
:10018000083E042E07D301CC01C5361F03E02178B9
:100190002970641C6D1C761EF9D270BD074880471B
:1001A00007480047FEE7FEE7FEE7FEE7FEE7FEE75B
:1001B00004480549054A064B70470000D70E000861
:1001C000C10000088000002080060020800200207E
:1001D00080020020FEB5054610460C46184373D039
:1001E000AE468C460020AD1A01469C4167D3664658
:1001F000002701243D46B61A9D4102D313463A46D4
:100200002124654676462F04360C3E432D0CB61A43
:100210009D4104D3150C1B042B4312041034654676
:1002200076462F06360A3E432D0AB61A9D4104D360
:10023000150E1B022B4312020834654676462F0723
:1002400036093E432D09B61A9D4104D3150F1B01F3
:100250002B431201241D65467646AF07B6083E4380
:10026000AD08B61A9D4104D3950F9B002B43920015
:10027000A41C65467646EF0776083E436D08B61A1D
:100280009D411AD392185B41641C16E00018764613
:1002900065464941B71A9D410191009009D36046D6
:1002A000B11A98418E468446009801990025401C59
:1002B0006941DD0752082A435B08641EE6D5724691
:1002C000634603B0F0BDFFE700200146C046C046CC
:1002D0002A462346F5E701E004C0091F0429FBD2A2
:1002E0008B0701D50280801CC90700D002707047BF
:1002F00000290BD0C30702D00270401C491E0229FE
:1003000004D3830702D50280801C891EE3E7002204
:10031000EEE70022DFE7002203098B422CD3030A19
:100320008B4211D300239C464EE003460B433CD442
:10033000002243088B4231D303098B421CD3030AAA
:100340008B4201D394463FE0C3098B4201D3CB01DA
:10035000C01A524183098B4201D38B01C01A52410A
:1003600043098B4201D34B01C01A524103098B420E
:1003700001D30B01C01A5241C3088B4201D3CB00F9
:10038000C01A524183088B4201D38B00C01A5241DC
:1003900043088B4201D34B00C01A5241411A00D28C
:1003A00001465241104670475DE0CA0F00D04942F5
:1003B000031000D34042534000229C4603098B4265
:1003C0002DD3030A8B4212D3FC22890112BA030AED
:1003D0008B420CD3890192118B4208D3890192116F
:1003E0008B4204D389013AD0921100E08909C309F4
:1003F0008B4201D3CB01C01A524183098B4201D3F6
:100400008B01C01A524143098B4201D34B01C01AE0
:10041000524103098B4201D30B01C01A5241C30858
:100420008B4201D3CB00C01A524183088B4201D3C7
:100430008B00C01A5241D9D243088B4201D34B00E2
:10044000C01A5241411A00D20146634652415B1024
:10045000104601D34042002B00D549427047634605
:100460005B1000D3404201B50020C046C04602BD2B
:10047000704770477047754600F024F8AE46050097
:1004800069465346C008C000854618B020B5FFF73E
:100490008FFE60BC00274908B6460026C0C5C0C50F
:1004A000C0C5C0C5C0C5C0C5C0C5C0C5403D490068
:1004B0008D46704710B50446C046C0462046FFF73B
:1004C0004AFE10BD004870471C000020014918205A
:1004D000ABBEFEE7260002007047000010B52448BE
:1004E00041690122D2041143416122490A68032370
:1004F0001A430A60CA689A43CA60826943151A435C
:1005000082611D48C36818229343C360C3681024E6
:100510002343C360C36844142343C360C368934345
:10052000C360826A03151A4382628268D30740223D
:10053000002B02D04B6913434B61C368DB0702D029
:100540004B6913434B6181680122D20711438160DB
:1005500081680029FCDB026801210A43026082688D
:100560000A4382600168816804221143816010BDE2
:1005700000100240000800480024014070B5044605
:1005800000F0F6F80546601C02D0044800782418F4
:1005900000F0EEF8401BA042FAD370BD0C00002022
:1005A000F8B5002303240125BFE02E469E40B44643
:1005B00032407CD00E79B607B60F012E01D0022E44
:1005C00017D186682746B6465E00B7400096764645
:1005D000BE43B646CF68009EB74076463743876035
:1005E00046686746BE430F79FF06FF0F9F403743BB
:1005F00047600E79F643B6070ED0C6682746B44664
:100600005E00B646B7406646BE43B4468F6876463F
:10061000B74066463743C7600E79B607B60F022E5D
:1006200014D1DE08B60036180096366A5F07B44665
:10063000FE0E0F27B646B7406646BE43B4460F6966
:100640007646B74066463743009E376206682746BF
:10065000B4465E00B646B7406646BE430F79B44620
:10066000BF07BF0F7646B7406646374307604E6800
:10067000B603B60F58D0304FBE692E43BE61BE6977
:100680009F08F607F60F2D4EBF00BE190096B668FC
:100690000F27B4469E07360FB646B7406646BE43A0
:1006A0000927FF06B446B84202D1002715E03BE017
:1006B000234FB84201D101270FE0224FB84201D1A8
:1006C00002270AE0204FB84201D1032705E01F4F5F
:1006D000B84201D1042700E005277646B7406646B8
:1006E0003743009EB7601A4E36684F689643FF0343
:1006F00000D51643164F3E607E684F689643BF0391
:1007000000D51643124F7E60BE684F689643FF02C5
:1007100000D516430E4FBE60FE684F689643BF0279
:1007200000D516430A4AD6605B1C0A681646DE40AE
:1007300000D03AE7F8BD0000001002400000014080
:100740000004004800080048000C00480010004861
:1007500000040140426913460B401B0491430B43C4
:1007600083617047002A01D08161704781627047C0
:1007700001488068704700000C0000200248816832
:1007800002788918816070470C00002010B5064877
:100790000168102211430160032000F007F800F007
:1007A00027F8002010BD00000020024070B504466C
:1007B0000D4D7D202978C000FFF7ADFD01460B48A7
:1007C0000068FFF7A8FD00F007FB002809D1042C02
:1007D00007D200222146401E00F01EF800206C6067
:1007E00070BD012070BD00000C000020180000202A
:1007F00008B508488169012211438161816911406E
:100800000091C26901040A43C261C06908400090B6
:1008100008BD00000010024010B500F0C3FB10BD81
:10082000F8B50F4606005FD03D4D2868C007C00FE1
:10083000B84209D228684008400038432860286838
:10084000C007C00FB8424FD13068364C81070CD575
:10085000400704D5606807210902084360606068AA
:10086000F0218843B168084360603078C0072CD01D
:100870007068012810D0022811D0032812D02168F6
:100880008907002930DA61688908890001436160BD
:10089000FFF76EFF009011E021688903F1E72168FE
:1008A0008901EEE7616BC903EBE7FFF761FF009990
:1008B000411A1D48814201D90320F8BD60680C210E
:1008C0000840716889008842EFD12868C007C00FCE
:1008D000B8420BD92868400840003843286028688F
:1008E000C007C00FB84201D00120F8BD30784007E2
:1008F00006D56068072109028843F16808436060F3
:1009000000F01EF86168094A0906090F515CC840E9
:10091000074908600320FFF749FF0020F8BD0000E9
:10092000002002400010024088130000341100082B
:1009300018000020014800687047000018000020DF
:1009400030B519A30FCB89B06C460FC41AA30FCBD7
:100950000FC41D4A51680C200B4603401B48042B52
:1009600005D01B4D082B04D00C2B00D1284609B014
:1009700030BD8B021B0F6C46E45CD26A04AB1207DD
:10098000120FC9039A5C890F022901D0032901D0F3
:10099000002301E0002328460021FFF71BFC21462D
:1009A00000F0E8FAE3E7000002030405060708097F
:1009B0000A0B0C0D0E0F10100102030405060708A8
:1009C000090A0B0C0D0E0F100010024000127A00E5
:1009D000006CDC02FEB5040070D02078F94EFA4DB0
:1009E000C00748D068680007800F01281FD06868DA
:1009F0000007800F022804D16868C003800F022816
:100A000015D06168012919D001208004002901D086
:100A1000052917D02968B1432960296881432960D5
:100A2000606800281BD0FFF7A3FE074613E0286884
:100A3000800320D560680028CED01CE028683043B1
:100A40002860EDE7296801432960F7E7FFF790FE8A
:100A5000C01B642870D828688003F7D50BE0FFF727
:100A600087FE074604E0FFF783FEC01B6428F1D829
:100A700028688003F7D4207880073FD5686800078E
:100A8000800F14D068680007800F022804D16868BE
:100A9000C003800F01280AD0E068002828681ED013
:100AA000012108432860FFF763FE07460CE0286831
:100AB00080070CD5E068012800D108E080E1FFF74D
:100AC00057FEC01B0228C5D828688007F7D52868BC
:100AD000F82188432169C900084328600EE04008D6
:100AE00040002860FFF744FE074604E0FFF740FEA1
:100AF000C01B0228AED828688007F7D420780007EA
:100B000023D5E0690028686A0FD001210843686294
:100B1000FFF72EFE074604E0FFF72AFEC01B02285F
:100B200098D8686A8007F7D50FE0400840006862EF
:100B3000FFF71EFE074605E0C3E0FFF719FEC01BE6
:100B4000022887D8686A8007F7D4207804274007EE
:100B5000002861DA00200190E869C00008D4E96942
:100B6000B8060143E961E969014001200091019063
:100B700096480168C90511D40168821511430160C6
:100B8000FFF7F6FD009005E0FFF7F2FD0099401A2F
:100B9000642898D88D480068C005F5D5A06801285C
:100BA0000AD0002801D0052811D0286A400840004A
:100BB0002862286AB84302E0286A012108432862B3
:100BC000A068002812D0FFF7D3FD00900AE0286A41
:100BD00038432862F0E7FFF7CBFD0099411A7C48C3
:100BE00081426ED8286A8007F5D50DE0FFF7C0FD79
:100BF000009006E0FFF7BCFD0099411A744881425D
:100C00005FD8286A8007F5D40198002804D0E969E4
:100C1000012000078143E9612078C00635D560696D
:100C200001280CD0401D686B24D038436863686B82
:100C3000400840006863FFF79BFD074622E0686BB1
:100C400038436863686B012108436863FFF790FDD0
:100C5000074604E0FFF78CFDC01B022831D8686B03
:100C60008007F7D5686BF8218843A169C90008435C
:100C700068630AE0B8436863F4E7FFF779FDC01BD7
:100C800002281ED8686B8007F7D42078800637D5F5
:100C900068680007800F032814D068680007800F79
:100CA000022804D16868C003800F03280AD0206A94
:100CB0000028686B16D030436863FFF759FD06467D
:100CC0000CE062E0686BC0031AD5206A012877D176
:100CD00016E0FFF74DFD801B022856D8686BC00355
:100CE000F7D50DE0B0436863FFF742FD064604E028
:100CF000FFF73EFD801B022847D8686BC003F7D47E
:100D0000606A002866D069680907890F022942D005
:100D1000012636060228286805D0B0432860FFF770
:100D200027FD044633E0B0432860FFF721FD074666
:100D300004E0FFF71DFDC01B022826D828688001AB
:100D4000F7D4E86A216B000900010843E862A16A50
:100D5000E06A084369687B22D203914308436860D4
:100D6000286830432860FFF703FD044604E0FFF7DE
:100D7000FFFC001B022808D828688001F7D529E06D
:100D8000FFF7F6FC001B022801D90320FEBD2868EE
:100D90008001F5D41EE00128F8D06868E96A0322D2
:100DA000D203A36A02409A420AD10907226B090FB3
:100DB000914205D10F2189040840E16A884209D097
:100DC0000120FEBD00000100001002400070004044
:100DD000881300000020F4E7094910B5401E88423E
:100DE00001D9012010BD074C60610321081F00F0EC
:100DF000D9F80020A06107202061002010BD00006C
:100E0000FFFFFF0000E000E0FEE7000000B50A4839
:100E100087B042690121C9040A4342614069142232
:100E20000840059005496846FFF79CF96946044863
:100E3000FFF7B6FB07B000BD00100240E410000849
:100E40000008004800B50A4887B0816901221143B3
:100E50008161806907491040059014226846FFF7B8
:100E600081F909206946C006FFF79AFB07B000BD6B
:100E70000010024020110008FEE77047704710B5CF
:100E8000FFF77CFC10BD10B592B034216846FFF727
:100E900040FA00240F94022000900D9401200E943B
:100EA000039010200994049010946846FFF792FD77
:100EB000002801D072B6FEE707200D900E940F9423
:100EC000002110940DA8FFF7ABFC002801D072B6EA
:100ED000FEE712B010BD70470349CA691206FCD57F
:100EE00001492031088170470048004010B58AB0A0
:100EF00014221C496846FFF735F91A4914221431A7
:100F000005A8FFF72FF9184C69462046FFF748FB64
:100F100005A92046FFF744FB606A012189020843C6
:100F20006062606A090108436062FFF703FD0F48D1
:100F3000C16845221143C160016808221143016064
:100F4000016804221143016001680122114301601C
:100F500001682022114301600549800408600AB03D
:100F600010BD0000F81000080004004800480040D0
:100F700000E100E0F8B5040C8BB2264682B25E4375
:100F80000D0C1046370C5843360480190021794166
:100F900016466E43370C36048019794126466E4357
:100FA0008919F8BD8307FF22DB0E9A408907090ED5
:100FB0009940002808DB830809489B001B18186823
:100FC00090430843186070470007000F08388308F3
:100FD00004489B001B18D86990430843D8617047A8
:100FE00000E400E000ED00E008B5FFF7CFFBFFF7FD
:100FF0004AFF38484269012149040A434261426973
:101000000A400092426949000A43426142690A402B
:101010000092C2690A43C261C06908400090FFF7AC
:10102000F5FEFFF763FFFFF70DFFFFF757FA01200B
:10103000294D00266860294C4702A860FF21013134
:101040002046FFF787FB264800687D21090188427A
:10105000606923DD38436061761C642E0BDD6868AF
:10106000002808D0002068602878FFF735FF606905
:101070008021084360610920C0060069C00725D0AF
:10108000012240212046FFF76DFBA868002811D0FF
:10109000012280212046FFF765FBCFE740218843EE
:1010A000606160698021884360616069B843606104
:1010B0000026E0E76878FFF70FFF7D20C000FFF70C
:1010C0005DFA012068600026A860B7E70020A860EC
:1010D000B4E70000001002400000002000080048B3
:1010E00040240140C0030000010000000000000097
:1010F00000000000000000000004000002000000EA
:1011000000000000000000000000000000080000D7
:1011100002000000000000000100000000000000CC
:1011200001000000000000000000000002000000BC
:1011300000000000000000000000000001020304A5
:101140000607080964110008000000201C000000C8
:1011500004010008801100081C0000206406000043
:1011600020010008535800000000000000000000AB
:1011700001000000040000000000000000127A00DE
:04000005080000C12E
:00000001FF
