:020000040800F2
:10000000780600209D010008890E0008F50D000803
:1000100000000000000000000000000000000000E0
:10002000000000000000000000000000C10E0008F9
:1000300000000000000000008B0E0008C30E000846
:10004000AF010008AF010008AF010008AF010008D0
:10005000AF01000839050008AF010008AF01000832
:10006000AF010008AF010008AF010008AF010008B0
:10007000AF010008AF010008AF010008AF010008A0
:10008000AF010008AF010008AF010008AF01000890
:10009000AF010008AF010008AF010008AF01000880
:1000A000AF010008AF010008AF010008AF01000870
:1000B000AF0100081D0F0008AF010008AF010008E4
:1000C00000F002F800F03EF80CA030C80838241800
:1000D0002D18A246671EAB4654465D46AC4201D180
:1000E00000F030F87E460F3E0FCCB6460126334274
:1000F00000D0FB1AA246AB4633431847101100004C
:1001000030110000103A02D378C878C1FAD85207EB
:1001100001D330C830C101D504680C6070470000BD
:100120000023002400250026103A01D378C1FBD813
:10013000520700D330C100D50B6070471FB51FBDFB
:1001400010B510BD00F097F91146FFF7F7FF00F06A
:100150008FFF00F0AFF903B4FFF7F2FF03BC00F02C
:10016000B5F9000070B505460C46164602E00FCC06
:100170000FC5103E102EFAD2082E02D303CC03C5B1
:10018000083E042E07D301CC01C5361F03E02178B9
:100190002970641C6D1C761EF9D270BD074880471B
:1001A00007480047FEE7FEE7FEE7FEE7FEE7FEE75B
:1001B00004480549054A064B704700001B0F00081C
:1001C000C100000878000020780600207802002096
:1001D00078020020FEB5054610460C46184373D041
:1001E000AE468C460020AD1A01469C4167D3664658
:1001F000002701243D46B61A9D4102D313463A46D4
:100200002124654676462F04360C3E432D0CB61A43
:100210009D4104D3150C1B042B4312041034654676
:1002200076462F06360A3E432D0AB61A9D4104D360
:10023000150E1B022B4312020834654676462F0723
:1002400036093E432D09B61A9D4104D3150F1B01F3
:100250002B431201241D65467646AF07B6083E4380
:10026000AD08B61A9D4104D3950F9B002B43920015
:10027000A41C65467646EF0776083E436D08B61A1D
:100280009D411AD392185B41641C16E00018764613
:1002900065464941B71A9D410191009009D36046D6
:1002A000B11A98418E468446009801990025401C59
:1002B0006941DD0752082A435B08641EE6D5724691
:1002C000634603B0F0BDFFE700200146C046C046CC
:1002D0002A462346F5E701E004C0091F0429FBD2A2
:1002E0008B0701D50280801CC90700D002707047BF
:1002F00000290BD0C30702D00270401C491E0229FE
:1003000004D3830702D50280801C891EE3E7002204
:10031000EEE70022DFE7002203098B422CD3030A19
:100320008B4211D300239C464EE003460B433CD442
:10033000002243088B4231D303098B421CD3030AAA
:100340008B4201D394463FE0C3098B4201D3CB01DA
:10035000C01A524183098B4201D38B01C01A52410A
:1003600043098B4201D34B01C01A524103098B420E
:1003700001D30B01C01A5241C3088B4201D3CB00F9
:10038000C01A524183088B4201D38B00C01A5241DC
:1003900043088B4201D34B00C01A5241411A00D28C
:1003A00001465241104670475DE0CA0F00D04942F5
:1003B000031000D34042534000229C4603098B4265
:1003C0002DD3030A8B4212D3FC22890112BA030AED
:1003D0008B420CD3890192118B4208D3890192116F
:1003E0008B4204D389013AD0921100E08909C309F4
:1003F0008B4201D3CB01C01A524183098B4201D3F6
:100400008B01C01A524143098B4201D34B01C01AE0
:10041000524103098B4201D30B01C01A5241C30858
:100420008B4201D3CB00C01A524183088B4201D3C7
:100430008B00C01A5241D9D243088B4201D34B00E2
:10044000C01A5241411A00D20146634652415B1024
:10045000104601D34042002B00D549427047634605
:100460005B1000D3404201B50020C046C04602BD2B
:10047000704770477047754600F024F8AE46050097
:1004800069465346C008C000854618B020B5FFF73E
:100490008FFE60BC00274908B6460026C0C5C0C50F
:1004A000C0C5C0C5C0C5C0C5C0C5C0C5403D490068
:1004B0008D46704710B50446C046C0462046FFF73B
:1004C0004AFE10BD00487047140000200149182062
:1004D000ABBEFEE726000200704700000920C00600
:1004E00001680C22114301601148816942151143D2
:1004F000816110480021C160C26843141A43C26080
:10050000826A02231A438262816081684205114334
:10051000816081680029FCDB8168012211438160D0
:100520000168C907FCD081680422114381607047CB
:10053000001002400024014010B5012100224902B0
:10054000064800F005F900F0E5FD05490120887036
:1005500004494A6902434A6110BD0000000800488E
:10056000000000200004014070B5044600F0F6F8D9
:100570000546601C02D004480078241800F0EEF80C
:10058000401BA042FAD370BD04000020F8B5002340
:1005900003240125BFE02E469E40B44632407CD065
:1005A0000E79B607B60F012E01D0022E17D186683C
:1005B0002746B6465E00B74000967646BE43B6462E
:1005C000CF68009EB74076463743876046686746E7
:1005D000BE430F79FF06FF0F9F40374347600E79F8
:1005E000F643B6070ED0C6682746B4465E00B64648
:1005F000B7406646BE43B4468F687646B740664607
:100600003743C7600E79B607B60F022E14D1DE0845
:10061000B60036180096366A5F07B446FE0E0F27FE
:10062000B646B7406646BE43B4460F697646B74005
:1006300066463743009E376206682746B4465E002A
:10064000B646B7406646BE430F79B446BF07BF0FF4
:100650007646B7406646374307604E68B603B60F26
:1006600058D0304FBE692E43BE61BE699F08F60761
:10067000F60F2D4EBF00BE190096B6680F27B44680
:100680009E07360FB646B7406646BE430927FF06AB
:10069000B446B84202D1002715E03BE0234FB842F0
:1006A00001D101270FE0224FB84201D102270AE011
:1006B000204FB84201D1032705E01F4FB84201D1B6
:1006C000042700E005277646B74066463743009E7C
:1006D000B7601A4E36684F689643FF0300D516433D
:1006E000164F3E607E684F689643BF0300D51643A1
:1006F000124F7E60BE684F689643FF0200D51643D6
:100700000E4FBE60FE684F689643BF0200D5164389
:100710000A4AD6605B1C0A681646DE4000D03AE7FB
:10072000F8BD000000100240000001400004004835
:1007300000080048000C0048001000480004014078
:10074000426913460B401B0491430B43836170477E
:10075000002A01D08161704781627047014880683A
:100760007047000004000020024881680278891860
:10077000816070470400002010B50648016810220F
:1007800011430160032000F007F800F027F8002073
:1007900010BD00000020024070B504460D4D7D20C4
:1007A0002978C000FFF7B7FD01460B480068FFF746
:1007B000B2FD00F007FB002809D1042C07D200226B
:1007C0002146401E00F01EF800206C6070BD012024
:1007D00070BD0000040000201000002008B508488B
:1007E0008169012211438161816911400091C269CF
:1007F00001040A43C261C0690840009008BD0000BE
:100800000010024010B500F011FC10BDF8B50F4605
:1008100006005FD03D4D2868C007C00FB84209D21E
:10082000286840084000384328602868C007C00F87
:10083000B8424FD13068364C81070CD5400704D5FB
:10084000606807210902084360606068F0218843FE
:10085000B168084360603078C0072CD07068012808
:1008600010D0022811D0032812D02168890700294E
:1008700030DA61688908890001436160FFF76EFF23
:10088000009011E021688903F1E721688901EEE712
:10089000616BC903EBE7FFF761FF0099411A1D483F
:1008A000814201D90320F8BD60680C2108407168BD
:1008B00089008842EFD12868C007C00FB8420BD921
:1008C000286840084000384328602868C007C00FE7
:1008D000B84201D00120F8BD3078400706D56068E5
:1008E000072109028843F1680843606000F01EF8A0
:1008F0006168094A0906090F515CC8400749086048
:100900000320FFF749FF0020F8BD0000002002404F
:100910000010024088130000FC11000810000020A5
:1009200001480068704700001000002030B519A38E
:100930000FCB89B06C460FC41AA30FCB0FC41D4A4E
:1009400051680C200B4603401B48042B05D01B4D5F
:10095000082B04D00C2B00D1284609B030BD8B02E7
:100960001B0F6C46E45CD26A04AB1207120FC9037A
:100970009A5C890F022901D0032901D0002301E0EC
:10098000002328460021FFF725FC214600F02AFB22
:10099000E3E7000002030405060708090A0B0C0D33
:1009A0000E0F10100102030405060708090A0B0CBC
:1009B0000D0E0F100010024000127A00006CDC02D5
:1009C000FEB5040070D02078F94EFA4DC00748D02B
:1009D00068680007800F01281FD068680007800F33
:1009E000022804D16868C003800F022815D061680E
:1009F000012919D001208004002901D0052917D030
:100A00002968B1432960296881432960606800280A
:100A10001BD0FFF7A3FE074613E02868800320D50C
:100A200060680028CED01CE0286830432860EDE7DD
:100A3000296801432960F7E7FFF790FEC01B64288F
:100A400070D828688003F7D50BE0FFF787FE0746CC
:100A500004E0FFF783FEC01B6428F1D828688003F8
:100A6000F7D4207880073FD568680007800F14D03E
:100A700068680007800F022804D16868C003800FEF
:100A800001280AD0E068002828681ED00121084308
:100A90002860FFF763FE07460CE0286880070CD546
:100AA000E068012800D108E080E1FFF757FEC01B95
:100AB0000228C5D828688007F7D52868F821884318
:100AC0002169C900084328600EE040084000286002
:100AD000FFF744FE074604E0FFF740FEC01B022874
:100AE000AED828688007F7D42078000723D5E069BE
:100AF0000028686A0FD0012108436862FFF72EFEC4
:100B0000074604E0FFF72AFEC01B022898D8686A4F
:100B10008007F7D50FE0400840006862FFF71EFE2F
:100B2000074605E0C3E0FFF719FEC01B022887D87F
:100B3000686A8007F7D4207804274007002861DA24
:100B400000200190E869C00008D4E969B8060143B3
:100B5000E961E9690140012000910190964801682E
:100B6000C90511D40168821511430160FFF7F6FD34
:100B7000009005E0FFF7F2FD0099401A642898D82C
:100B80008D480068C005F5D5A06801280AD0002866
:100B900001D0052811D0286A400840002862286A40
:100BA000B84302E0286A012108432862A0680028AF
:100BB00012D0FFF7D3FD00900AE0286A384328627C
:100BC000F0E7FFF7CBFD0099411A7C4881426ED8CF
:100BD000286A8007F5D50DE0FFF7C0FD009006E01C
:100BE000FFF7BCFD0099411A744881425FD8286A1A
:100BF0008007F5D40198002804D0E9690120000796
:100C00008143E9612078C00635D5606901280CD0A0
:100C1000401D686B24D038436863686B400840000F
:100C20006863FFF79BFD074622E0686B3843686303
:100C3000686B012108436863FFF790FD074604E0F5
:100C4000FFF78CFDC01B022831D8686B8007F7D5F1
:100C5000686BF8218843A169C900084368630AE00A
:100C6000B8436863F4E7FFF779FDC01B02281ED87C
:100C7000686B8007F7D42078800637D5686800074E
:100C8000800F032814D068680007800F022804D161
:100C90006868C003800F03280AD0206A0028686BA8
:100CA00016D030436863FFF759FD06460CE062E05A
:100CB000686BC0031AD5206A012877D116E0FFF7C8
:100CC0004DFD801B022856D8686BC003F7D50DE098
:100CD000B0436863FFF742FD064604E0FFF73EFDC0
:100CE000801B022847D8686BC003F7D4606A0028CD
:100CF00066D069680907890F022942D001263606A5
:100D00000228286805D0B0432860FFF727FD044675
:100D100033E0B0432860FFF721FD074604E0FFF70A
:100D20001DFDC01B022826D828688001F7D4E86A78
:100D3000216B000900010843E862A16AE06A0843E8
:100D400069687B22D2039143084368602868304376
:100D50002860FFF703FD044604E0FFF7FFFC001BDB
:100D6000022808D828688001F7D529E0FFF7F6FCAB
:100D7000001B022801D90320FEBD28688001F5D49C
:100D80001EE00128F8D06868E96A0322D203A36A4A
:100D900002409A420AD10907226B090F914205D1FC
:100DA0000F2189040840E16A884209D00120FEBD74
:100DB0000000010000100240007000408813000095
:100DC0000020F4E7094910B5401E884201D90120EE
:100DD00010BD074C60610321081F00F027F90020B7
:100DE000A06107202061002010BD0000FFFFFF0070
:100DF00000E000E0FEE7000000B50A4887B0426965
:100E00000121C9040A434261406914220840059047
:100E100005496846FFF7A6F969460448FFF7B6FB9F
:100E200007B000BD00100240AC11000800080048E7
:100E300010B5114886B08169012421438161806920
:100E40001422204005900D496846FFF78BF90920D0
:100E50006946C006FFF79AFB094801682143016013
:100E6000816821438160074881688160052000F026
:100E7000D1F806B010BD000000100240E8110008D3
:100E80000004014000000140FEE7704770B50A4DC4
:100E900004462878844209D1012251020748FFF70D
:100EA00057FC00F029F90A2000F04EF968788442D6
:100EB00001D100F02FF970BD0000002000080048AB
:100EC000704710B5FFF750FC10BD10B592B034213B
:100ED0006846FFF71EFA00240F94022000900D943C
:100EE00001200E94039010200994049010946846F9
:100EF000FFF766FD002801D072B6FEE707200D90CF
:100F00000E940F94002110940DA8FFF77FFC002889
:100F100001D072B6FEE712B010BD704710B5084898
:100F20008088C0B2FFF7B2FF05482038C16920228F
:100F30009143C161C16908229143C16110BD0000A4
:100F40002048004010B523488CB0C26901218904B3
:100F50000A43C261C069142208400A901E496846CB
:100F6000FFF700F91C491422143105A8FFF7FAF81D
:100F70001A4C69462046FFF709FB05A92046FFF7F2
:100F800005FB606A0121890208436062606A090109
:100F900008436062FFF7C4FC1148C1684522114351
:100FA000C160026801210A430260026808231A43F3
:100FB0000260026804231A43026002680A43026066
:100FC00001682022114301601D2000F023F80CB0BD
:100FD00010BD000000100240C011000800040048CD
:100FE00000480040F8B5040C8BB2264682B25E433E
:100FF0000D0C1046370C58433604801900217941F6
:1010000016466E43370C36048019794126466E43E6
:101010008919F8BD002805DBC106C90E01208840EA
:10102000014908607047000000E100E08307FF22EB
:10103000DB0E9A408907090E9940002808DB8308D7
:1010400009489B001B1818689043084318607047B4
:101050000007000F0838830804489B001B18D86954
:1010600090430843D861704700E400E000ED00E0E1
:1010700008B5FFF781FBFFF728FF1C4842690121F3
:1010800049040A43426142690A40009242694900A8
:101090000A43426142690A400092426949000A4398
:1010A0004261406908400090FFF7A6FEFFF74AFF43
:1010B000FFF7BEFE00F033F8FF2601360C4F0D4C53
:1010C0000025C820FFF750FA31463846FFF738FBB5
:1010D000A0780128F5D17D20C000FFF745FA00F087
:1010E00025F80A2000F030F8A570EAE70010024069
:1010F0000008004800000020054800214161092047
:10110000C0064161416920221143416170470000DE
:101110000008004800200921C9064861704700B551
:1011200000F01CF8FFF7DAF900BD000000210920EB
:10113000C006416103484161416901221143416197
:10114000704700000008004800B50920C00641694A
:1011500010221143416100F01BF800BD0521C906B2
:101160000920C006016001680522120211430160D6
:10117000002141610548016041608160C1604161B9
:101180000168012211430160704700000008004817
:1011900004480068400704D502484030006802490E
:1011A000087070470024014003000020C0030000C5
:1011B000010000000000000000000000000000002E
:1011C0000004000002000000000000000000000019
:1011D0000000000000080000020000000000000005
:1011E00001000000000000000100000000000000FD
:1011F00000000000010000000000000000000000EE
:101200000000000001020304060708092C12000870
:101210000000002014000000040100084012000833
:10122000140000206406000020010008535800004C
:1012300001000000040000000000000000127A001D
:04000005080000C12E
:00000001FF
